{
  "contractName": "Pregunta3",
  "abi": [
    {
      "constant": true,
      "inputs": [
        {
          "internalType": "uint256",
          "name": "",
          "type": "uint256"
        }
      ],
      "name": "preguntas",
      "outputs": [
        {
          "internalType": "uint256",
          "name": "idPregunta",
          "type": "uint256"
        },
        {
          "internalType": "address",
          "name": "autor",
          "type": "address"
        },
        {
          "internalType": "string",
          "name": "texto",
          "type": "string"
        },
        {
          "internalType": "string",
          "name": "opcionCorrecta",
          "type": "string"
        }
      ],
      "payable": false,
      "stateMutability": "view",
      "type": "function"
    },
    {
      "constant": true,
      "inputs": [
        {
          "internalType": "uint256",
          "name": "",
          "type": "uint256"
        }
      ],
      "name": "respuestas",
      "outputs": [
        {
          "internalType": "address",
          "name": "usuario",
          "type": "address"
        },
        {
          "internalType": "uint256",
          "name": "idPregunta",
          "type": "uint256"
        },
        {
          "internalType": "string",
          "name": "opcion",
          "type": "string"
        },
        {
          "internalType": "uint256",
          "name": "puntaje",
          "type": "uint256"
        }
      ],
      "payable": false,
      "stateMutability": "view",
      "type": "function"
    },
    {
      "constant": true,
      "inputs": [
        {
          "internalType": "uint256",
          "name": "idPregunta",
          "type": "uint256"
        }
      ],
      "name": "getPreguntaById",
      "outputs": [
        {
          "components": [
            {
              "internalType": "uint256",
              "name": "idPregunta",
              "type": "uint256"
            },
            {
              "internalType": "address",
              "name": "autor",
              "type": "address"
            },
            {
              "internalType": "string",
              "name": "texto",
              "type": "string"
            },
            {
              "internalType": "string[]",
              "name": "opciones",
              "type": "string[]"
            },
            {
              "internalType": "string",
              "name": "opcionCorrecta",
              "type": "string"
            }
          ],
          "internalType": "struct Pregunta3.Pregunta",
          "name": "pregunta",
          "type": "tuple"
        }
      ],
      "payable": false,
      "stateMutability": "view",
      "type": "function"
    },
    {
      "constant": true,
      "inputs": [],
      "name": "getPreguntas",
      "outputs": [
        {
          "components": [
            {
              "internalType": "uint256",
              "name": "idPregunta",
              "type": "uint256"
            },
            {
              "internalType": "address",
              "name": "autor",
              "type": "address"
            },
            {
              "internalType": "string",
              "name": "texto",
              "type": "string"
            },
            {
              "internalType": "string[]",
              "name": "opciones",
              "type": "string[]"
            },
            {
              "internalType": "string",
              "name": "opcionCorrecta",
              "type": "string"
            }
          ],
          "internalType": "struct Pregunta3.Pregunta[]",
          "name": "listaPreguntas",
          "type": "tuple[]"
        }
      ],
      "payable": false,
      "stateMutability": "view",
      "type": "function"
    },
    {
      "constant": false,
      "inputs": [
        {
          "components": [
            {
              "internalType": "address",
              "name": "usuario",
              "type": "address"
            },
            {
              "internalType": "uint256",
              "name": "idPregunta",
              "type": "uint256"
            },
            {
              "internalType": "string",
              "name": "opcion",
              "type": "string"
            },
            {
              "internalType": "uint256",
              "name": "puntaje",
              "type": "uint256"
            }
          ],
          "internalType": "struct Pregunta3.Respuesta",
          "name": "respuesta",
          "type": "tuple"
        }
      ],
      "name": "responder",
      "outputs": [],
      "payable": false,
      "stateMutability": "nonpayable",
      "type": "function"
    },
    {
      "constant": false,
      "inputs": [
        {
          "components": [
            {
              "internalType": "uint256",
              "name": "idPregunta",
              "type": "uint256"
            },
            {
              "internalType": "address",
              "name": "autor",
              "type": "address"
            },
            {
              "internalType": "string",
              "name": "texto",
              "type": "string"
            },
            {
              "internalType": "string[]",
              "name": "opciones",
              "type": "string[]"
            },
            {
              "internalType": "string",
              "name": "opcionCorrecta",
              "type": "string"
            }
          ],
          "internalType": "struct Pregunta3.Pregunta",
          "name": "pregunta",
          "type": "tuple"
        }
      ],
      "name": "crearPregunta",
      "outputs": [],
      "payable": false,
      "stateMutability": "nonpayable",
      "type": "function"
    }
  ],
  "bytecode": "0x608060405234801561001057600080fd5b506116ea806100206000396000f3fe608060405234801561001057600080fd5b50600436106100625760003560e01c80630211a0681461006757806348ec82fb146100855780637b8ea605146100a15780638172d809146100d4578063ca272764146100f0578063d3628b3714610123575b600080fd5b61006f610153565b60405161007c9190611413565b60405180910390f35b61009f600480360361009a9190810190610fee565b61043f565b005b6100bb60048036036100b69190810190611070565b61051b565b6040516100cb94939291906113c7565b60405180910390f35b6100ee60048036036100e9919081019061102f565b610610565b005b61010a60048036036101059190810190611070565b61074b565b60405161011a9493929190611477565b60405180910390f35b61013d60048036036101389190810190611070565b6108d8565b60405161014a9190611455565b60405180910390f35b60606000805480602002602001604051908101604052809291908181526020016000905b8282101561043657838290600052602060002090600502016040518060a0016040529081600082015481526020016001820160009054906101000a900473ffffffffffffffffffffffffffffffffffffffff1673ffffffffffffffffffffffffffffffffffffffff1673ffffffffffffffffffffffffffffffffffffffff168152602001600282018054600181600116156101000203166002900480601f0160208091040260200160405190810160405280929190818152602001828054600181600116156101000203166002900480156102935780601f1061026857610100808354040283529160200191610293565b820191906000526020600020905b81548152906001019060200180831161027657829003601f168201915b5050505050815260200160038201805480602002602001604051908101604052809291908181526020016000905b8282101561037d578382906000526020600020018054600181600116156101000203166002900480601f0160208091040260200160405190810160405280929190818152602001828054600181600116156101000203166002900480156103695780601f1061033e57610100808354040283529160200191610369565b820191906000526020600020905b81548152906001019060200180831161034c57829003601f168201915b5050505050815260200190600101906102c1565b505050508152602001600482018054600181600116156101000203166002900480601f01602080910402602001604051908101604052809291908181526020018280546001816001161561010002031660029004801561041e5780601f106103f35761010080835404028352916020019161041e565b820191906000526020600020905b81548152906001019060200180831161040157829003601f168201915b50505050508152505081526020019060010190610177565b50505050905090565b600081908060018154018082558091505090600182039060005260206000209060050201600090919290919091506000820151816000015560208201518160010160006101000a81548173ffffffffffffffffffffffffffffffffffffffff021916908373ffffffffffffffffffffffffffffffffffffffff16021790555060408201518160020190805190602001906104da929190610be2565b5060608201518160030190805190602001906104f7929190610c62565b506080820151816004019080519060200190610514929190610be2565b5050505050565b6001818154811061052857fe5b90600052602060002090600402016000915090508060000160009054906101000a900473ffffffffffffffffffffffffffffffffffffffff1690806001015490806002018054600181600116156101000203166002900480601f0160208091040260200160405190810160405280929190818152602001828054600181600116156101000203166002900480156106005780601f106105d557610100808354040283529160200191610600565b820191906000526020600020905b8154815290600101906020018083116105e357829003601f168201915b5050505050908060030154905084565b610618610cc2565b61062582602001516108d8565b9050806020015173ffffffffffffffffffffffffffffffffffffffff16826000015173ffffffffffffffffffffffffffffffffffffffff16141561069e576040517f08c379a000000000000000000000000000000000000000000000000000000000815260040161069590611435565b60405180910390fd5b6001829080600181540180825580915050906001820390600052602060002090600402016000909192909190915060008201518160000160006101000a81548173ffffffffffffffffffffffffffffffffffffffff021916908373ffffffffffffffffffffffffffffffffffffffff160217905550602082015181600101556040820151816002019080519060200190610739929190610be2565b50606082015181600301555050505050565b6000818154811061075857fe5b90600052602060002090600502016000915090508060000154908060010160009054906101000a900473ffffffffffffffffffffffffffffffffffffffff1690806002018054600181600116156101000203166002900480601f0160208091040260200160405190810160405280929190818152602001828054600181600116156101000203166002900480156108305780601f1061080557610100808354040283529160200191610830565b820191906000526020600020905b81548152906001019060200180831161081357829003601f168201915b505050505090806004018054600181600116156101000203166002900480601f0160208091040260200160405190810160405280929190818152602001828054600181600116156101000203166002900480156108ce5780601f106108a3576101008083540402835291602001916108ce565b820191906000526020600020905b8154815290600101906020018083116108b157829003601f168201915b5050505050905084565b6108e0610cc2565b60008090505b600080549050811015610bdc57826000828154811061090157fe5b9060005260206000209060050201600001541415610bcf576000818154811061092657fe5b90600052602060002090600502016040518060a0016040529081600082015481526020016001820160009054906101000a900473ffffffffffffffffffffffffffffffffffffffff1673ffffffffffffffffffffffffffffffffffffffff1673ffffffffffffffffffffffffffffffffffffffff168152602001600282018054600181600116156101000203166002900480601f016020809104026020016040519081016040528092919081815260200182805460018160011615610100020316600290048015610a385780601f10610a0d57610100808354040283529160200191610a38565b820191906000526020600020905b815481529060010190602001808311610a1b57829003601f168201915b5050505050815260200160038201805480602002602001604051908101604052809291908181526020016000905b82821015610b22578382906000526020600020018054600181600116156101000203166002900480601f016020809104026020016040519081016040528092919081815260200182805460018160011615610100020316600290048015610b0e5780601f10610ae357610100808354040283529160200191610b0e565b820191906000526020600020905b815481529060010190602001808311610af157829003601f168201915b505050505081526020019060010190610a66565b505050508152602001600482018054600181600116156101000203166002900480601f016020809104026020016040519081016040528092919081815260200182805460018160011615610100020316600290048015610bc35780601f10610b9857610100808354040283529160200191610bc3565b820191906000526020600020905b815481529060010190602001808311610ba657829003601f168201915b50505050508152505091505b80806001019150506108e6565b50919050565b828054600181600116156101000203166002900490600052602060002090601f016020900481019282601f10610c2357805160ff1916838001178555610c51565b82800160010185558215610c51579182015b82811115610c50578251825591602001919060010190610c35565b5b509050610c5e9190610d07565b5090565b828054828255906000526020600020908101928215610cb1579160200282015b82811115610cb0578251829080519060200190610ca0929190610be2565b5091602001919060010190610c82565b5b509050610cbe9190610d2c565b5090565b6040518060a0016040528060008152602001600073ffffffffffffffffffffffffffffffffffffffff1681526020016060815260200160608152602001606081525090565b610d2991905b80821115610d25576000816000905550600101610d0d565b5090565b90565b610d5591905b80821115610d515760008181610d489190610d58565b50600101610d32565b5090565b90565b50805460018160011615610100020316600290046000825580601f10610d7e5750610d9d565b601f016020900490600052602060002090810190610d9c9190610d07565b5b50565b600081359050610daf81611679565b92915050565b600082601f830112610dc657600080fd5b8135610dd9610dd4826114f7565b6114ca565b9150818183526020840193506020810190508360005b83811015610e1f5781358601610e058882610e29565b845260208401935060208301925050600181019050610def565b5050505092915050565b600082601f830112610e3a57600080fd5b8135610e4d610e488261151f565b6114ca565b91508082526020830160208301858383011115610e6957600080fd5b610e74838284611626565b50505092915050565b600060a08284031215610e8f57600080fd5b610e9960a06114ca565b90506000610ea984828501610fd9565b6000830152506020610ebd84828501610da0565b602083015250604082013567ffffffffffffffff811115610edd57600080fd5b610ee984828501610e29565b604083015250606082013567ffffffffffffffff811115610f0957600080fd5b610f1584828501610db5565b606083015250608082013567ffffffffffffffff811115610f3557600080fd5b610f4184828501610e29565b60808301525092915050565b600060808284031215610f5f57600080fd5b610f6960806114ca565b90506000610f7984828501610da0565b6000830152506020610f8d84828501610fd9565b602083015250604082013567ffffffffffffffff811115610fad57600080fd5b610fb984828501610e29565b6040830152506060610fcd84828501610fd9565b60608301525092915050565b600081359050610fe881611690565b92915050565b60006020828403121561100057600080fd5b600082013567ffffffffffffffff81111561101a57600080fd5b61102684828501610e7d565b91505092915050565b60006020828403121561104157600080fd5b600082013567ffffffffffffffff81111561105b57600080fd5b61106784828501610f4d565b91505092915050565b60006020828403121561108257600080fd5b600061109084828501610fd9565b91505092915050565b60006110a583836111c9565b905092915050565b60006110b98383611325565b905092915050565b6110ca816115ea565b82525050565b6110d9816115ea565b82525050565b60006110ea8261156b565b6110f481856115a6565b9350836020820285016111068561154b565b8060005b8581101561114257848403895281516111238582611099565b945061112e8361158c565b925060208a0199505060018101905061110a565b50829750879550505050505092915050565b600061115f82611576565b61116981856115b7565b93508360208202850161117b8561155b565b8060005b858110156111b7578484038952815161119885826110ad565b94506111a383611599565b925060208a0199505060018101905061117f565b50829750879550505050505092915050565b60006111d482611581565b6111de81856115c8565b93506111ee818560208601611635565b6111f781611668565b840191505092915050565b600061120d82611581565b61121781856115d9565b9350611227818560208601611635565b61123081611668565b840191505092915050565b60006112486029836115d9565b91507f4e6f20736520707565646520726573706f6e64657220756e612070726567756e60008301527f74612070726f70696100000000000000000000000000000000000000000000006020830152604082019050919050565b600060a0830160008301516112b960008601826113a9565b5060208301516112cc60208601826110c1565b50604083015184820360408601526112e482826111c9565b915050606083015184820360608601526112fe82826110df565b9150506080830151848203608086015261131882826111c9565b9150508091505092915050565b600060a08301600083015161133d60008601826113a9565b50602083015161135060208601826110c1565b506040830151848203604086015261136882826111c9565b9150506060830151848203606086015261138282826110df565b9150506080830151848203608086015261139c82826111c9565b9150508091505092915050565b6113b28161161c565b82525050565b6113c18161161c565b82525050565b60006080820190506113dc60008301876110d0565b6113e960208301866113b8565b81810360408301526113fb8185611202565b905061140a60608301846113b8565b95945050505050565b6000602082019050818103600083015261142d8184611154565b905092915050565b6000602082019050818103600083015261144e8161123b565b9050919050565b6000602082019050818103600083015261146f81846112a1565b905092915050565b600060808201905061148c60008301876113b8565b61149960208301866110d0565b81810360408301526114ab8185611202565b905081810360608301526114bf8184611202565b905095945050505050565b6000604051905081810181811067ffffffffffffffff821117156114ed57600080fd5b8060405250919050565b600067ffffffffffffffff82111561150e57600080fd5b602082029050602081019050919050565b600067ffffffffffffffff82111561153657600080fd5b601f19601f8301169050602081019050919050565b6000819050602082019050919050565b6000819050602082019050919050565b600081519050919050565b600081519050919050565b600081519050919050565b6000602082019050919050565b6000602082019050919050565b600082825260208201905092915050565b600082825260208201905092915050565b600082825260208201905092915050565b600082825260208201905092915050565b60006115f5826115fc565b9050919050565b600073ffffffffffffffffffffffffffffffffffffffff82169050919050565b6000819050919050565b82818337600083830152505050565b60005b83811015611653578082015181840152602081019050611638565b83811115611662576000848401525b50505050565b6000601f19601f8301169050919050565b611682816115ea565b811461168d57600080fd5b50565b6116998161161c565b81146116a457600080fd5b5056fea365627a7a72315820198a9db5edc468c1b1ae4534c453d837c4968f5dd0decbb9d8386c3e0d9095ce6c6578706572696d656e74616cf564736f6c63430005100040",
  "source": "pragma solidity >=0.5.16;\r\npragma experimental ABIEncoderV2;\r\n\r\ncontract Pregunta3 {\r\n    // ¿como se calcula el puntaje al responder?\r\n\r\n    //function promedioPuntaje -> address\r\n    //function cambiarEstado -> address, estadoNuevo\r\n    //require cambiarEstado -> Solo el creador puede cambiar el estado del smart contract\r\n\r\n    struct Pregunta {\r\n        uint256 idPregunta; // AUTOINCREMENTAL -> variable global? modifier?\r\n        address autor;\r\n        string texto;\r\n        string[] opciones;\r\n        string opcionCorrecta;\r\n    }\r\n\r\n    struct Respuesta {\r\n        address usuario;\r\n        uint256 idPregunta;\r\n        string opcion;\r\n        uint256 puntaje;\r\n    }\r\n\r\n    Pregunta[] public preguntas;\r\n    Respuesta[] public respuestas;\r\n\r\n    function getPreguntaById(uint256 idPregunta)\r\n        public\r\n        view\r\n        returns (Pregunta memory pregunta)\r\n    {\r\n        for (uint256 i = 0; i < preguntas.length; i++) {\r\n            if (preguntas[i].idPregunta == idPregunta) {\r\n                pregunta = preguntas[i];\r\n                //return pregunta;\r\n            }\r\n        }\r\n    }\r\n\r\n    function getPreguntas()\r\n        public\r\n        view\r\n        returns (Pregunta[] memory listaPreguntas)\r\n    {\r\n        listaPreguntas = preguntas;\r\n    }\r\n\r\n    //function responder -> address (del que responde), respuesta: idPregunta, opcion, puntaje\r\n    function responder(Respuesta memory respuesta) public {\r\n        Pregunta memory pregunta = getPreguntaById(respuesta.idPregunta);\r\n        require(\r\n            respuesta.usuario != pregunta.autor,\r\n            \"No se puede responder una pregunta propia\"\r\n        );\r\n        respuestas.push(respuesta);\r\n    }\r\n\r\n    //function crearPregunta -> pregunta: address (autor), texto, opciones (array?), opcionCorrecta\r\n    function crearPregunta(Pregunta memory pregunta) public {\r\n        preguntas.push(pregunta);\r\n    }\r\n    /* \r\n    function crearPregunta(address _autor, string _texto, string[] memory _opciones, string _opcionCorrecta) public {\r\n        preguntas.push(Pregunta({\r\n            autor: _autor,\r\n            texto: _texto,\r\n            opciones: _opciones,\r\n            opcionCorrecta: _opcionCorrecta\r\n        }));\r\n    } \r\n    */\r\n}\r\n",
  "sourcePath": "C:/Users/mcarunchio/PHM/tp-2021-front-grupo-6-1/pregunta3/truffle/contracts/Pregunta3.sol",
  "compiler": {
    "name": "solc",
    "version": "0.5.16+commit.9c3226ce.Emscripten.clang"
  },
  "schemaVersion": "3.4.1",
  "updatedAt": "2021-06-14T01:13:26.382Z",
  "devdoc": {
    "methods": {}
  },
  "userdoc": {
    "methods": {}
  }
}