{
  "contractName": "Pregunta3",
  "abi": [
    {
      "inputs": [
        {
          "internalType": "uint256",
          "name": "",
          "type": "uint256"
        }
      ],
      "name": "preguntas",
      "outputs": [
        {
          "internalType": "uint256",
          "name": "idPregunta",
          "type": "uint256"
        },
        {
          "internalType": "address",
          "name": "autor",
          "type": "address"
        },
        {
          "internalType": "string",
          "name": "texto",
          "type": "string"
        },
        {
          "internalType": "string",
          "name": "opcionCorrecta",
          "type": "string"
        }
      ],
      "stateMutability": "view",
      "type": "function"
    },
    {
      "inputs": [
        {
          "internalType": "address",
          "name": "",
          "type": "address"
        },
        {
          "internalType": "uint256",
          "name": "",
          "type": "uint256"
        }
      ],
      "name": "usuario",
      "outputs": [
        {
          "internalType": "uint256",
          "name": "idPregunta",
          "type": "uint256"
        },
        {
          "internalType": "string",
          "name": "opcion",
          "type": "string"
        },
        {
          "internalType": "uint256",
          "name": "puntaje",
          "type": "uint256"
        }
      ],
      "stateMutability": "view",
      "type": "function"
    },
    {
      "inputs": [
        {
          "internalType": "enum Pregunta3.Estado",
          "name": "_estado",
          "type": "uint8"
        }
      ],
      "name": "verificarEstado",
      "outputs": [],
      "stateMutability": "view",
      "type": "function"
    },
    {
      "inputs": [
        {
          "internalType": "enum Pregunta3.Estado",
          "name": "_estado",
          "type": "uint8"
        }
      ],
      "name": "cambiarEstado",
      "outputs": [],
      "stateMutability": "nonpayable",
      "type": "function"
    },
    {
      "inputs": [
        {
          "internalType": "uint256",
          "name": "idPregunta",
          "type": "uint256"
        }
      ],
      "name": "getPreguntaById",
      "outputs": [
        {
          "components": [
            {
              "internalType": "uint256",
              "name": "idPregunta",
              "type": "uint256"
            },
            {
              "internalType": "address",
              "name": "autor",
              "type": "address"
            },
            {
              "internalType": "string",
              "name": "texto",
              "type": "string"
            },
            {
              "internalType": "string[]",
              "name": "opciones",
              "type": "string[]"
            },
            {
              "internalType": "string",
              "name": "opcionCorrecta",
              "type": "string"
            }
          ],
          "internalType": "struct Pregunta3.Pregunta",
          "name": "pregunta",
          "type": "tuple"
        }
      ],
      "stateMutability": "view",
      "type": "function"
    },
    {
      "inputs": [
        {
          "components": [
            {
              "internalType": "uint256",
              "name": "idPregunta",
              "type": "uint256"
            },
            {
              "internalType": "string",
              "name": "opcion",
              "type": "string"
            },
            {
              "internalType": "uint256",
              "name": "puntaje",
              "type": "uint256"
            }
          ],
          "internalType": "struct Pregunta3.Respuesta",
          "name": "respuesta",
          "type": "tuple"
        }
      ],
      "name": "responder",
      "outputs": [],
      "stateMutability": "nonpayable",
      "type": "function"
    },
    {
      "inputs": [
        {
          "components": [
            {
              "internalType": "uint256",
              "name": "idPregunta",
              "type": "uint256"
            },
            {
              "internalType": "address",
              "name": "autor",
              "type": "address"
            },
            {
              "internalType": "string",
              "name": "texto",
              "type": "string"
            },
            {
              "internalType": "string[]",
              "name": "opciones",
              "type": "string[]"
            },
            {
              "internalType": "string",
              "name": "opcionCorrecta",
              "type": "string"
            }
          ],
          "internalType": "struct Pregunta3.Pregunta",
          "name": "pregunta",
          "type": "tuple"
        }
      ],
      "name": "crearPregunta",
      "outputs": [],
      "stateMutability": "nonpayable",
      "type": "function"
    }
  ],
  "bytecode": "0x608060405260016000806101000a81548160ff021916908360038111156100295761002861009a565b5b02179055507344026f6c64c2c98ae7d4fbc15b20ae730b52ac8c600060016101000a81548173ffffffffffffffffffffffffffffffffffffffff021916908373ffffffffffffffffffffffffffffffffffffffff160217905550600060015534801561009457600080fd5b506100c9565b7f4e487b7100000000000000000000000000000000000000000000000000000000600052602160045260246000fd5b6116be806100d86000396000f3fe608060405234801561001057600080fd5b506004361061007d5760003560e01c80635fe9f8f91161005b5780635fe9f8f9146100d6578063ca272764146100f2578063d3628b3714610125578063e2bfd733146101555761007d565b8063205cd5d6146100825780633e0794381461009e57806348ec82fb146100ba575b600080fd5b61009c60048036038101906100979190610ec1565b610187565b005b6100b860048036038101906100b39190610ec1565b6101fe565b005b6100d460048036038101906100cf9190610eee565b610284565b005b6100f060048036038101906100eb9190610f37565b610382565b005b61010c60048036038101906101079190610f80565b6104ba565b60405161011c9493929190611210565b60405180910390f35b61013f600480360381019061013a9190610f80565b61062a565b60405161014c91906111ee565b60405180910390f35b61016f600480360381019061016a9190610e81565b61091f565b60405161017e93929190611263565b60405180910390f35b80600381111561019a576101996114e2565b5b60008054906101000a900460ff1660038111156101ba576101b96114e2565b5b14156101fb576040517f08c379a00000000000000000000000000000000000000000000000000000000081526004016101f2906111ae565b60405180910390fd5b50565b600060019054906101000a900473ffffffffffffffffffffffffffffffffffffffff1673ffffffffffffffffffffffffffffffffffffffff163373ffffffffffffffffffffffffffffffffffffffff161461025857600080fd5b806000806101000a81548160ff0219169083600381111561027c5761027b6114e2565b5b021790555050565b61028e6001610187565b6102986002610187565b6102a06109ee565b81600001818152505060028190806001815401808255809150506001900390600052602060002090600502016000909190919091506000820151816000015560208201518160010160006101000a81548173ffffffffffffffffffffffffffffffffffffffff021916908373ffffffffffffffffffffffffffffffffffffffff1602179055506040820151816002019080519060200190610342929190610a0a565b50606082015181600301908051906020019061035f929190610a90565b50608082015181600401908051906020019061037c929190610a0a565b50505050565b61038c6003610187565b6103966001610187565b60006103a5826000015161062a565b9050806020015173ffffffffffffffffffffffffffffffffffffffff163373ffffffffffffffffffffffffffffffffffffffff16141561041a576040517f08c379a0000000000000000000000000000000000000000000000000000000008152600401610411906111ce565b60405180910390fd5b600360003373ffffffffffffffffffffffffffffffffffffffff1673ffffffffffffffffffffffffffffffffffffffff1681526020019081526020016000208290806001815401808255809150506001900390600052602060002090600302016000909190919091506000820151816000015560208201518160010190805190602001906104a9929190610a0a565b506040820151816002015550505050565b600281815481106104ca57600080fd5b90600052602060002090600502016000915090508060000154908060010160009054906101000a900473ffffffffffffffffffffffffffffffffffffffff169080600201805461051990611407565b80601f016020809104026020016040519081016040528092919081815260200182805461054590611407565b80156105925780601f1061056757610100808354040283529160200191610592565b820191906000526020600020905b81548152906001019060200180831161057557829003601f168201915b5050505050908060040180546105a790611407565b80601f01602080910402602001604051908101604052809291908181526020018280546105d390611407565b80156106205780601f106105f557610100808354040283529160200191610620565b820191906000526020600020905b81548152906001019060200180831161060357829003601f168201915b5050505050905084565b610632610af0565b61063c6003610187565b60005b60028054905081101561091957826002828154811061066157610660611540565b5b9060005260206000209060050201600001541415610906576002818154811061068d5761068c611540565b5b90600052602060002090600502016040518060a0016040529081600082015481526020016001820160009054906101000a900473ffffffffffffffffffffffffffffffffffffffff1673ffffffffffffffffffffffffffffffffffffffff1673ffffffffffffffffffffffffffffffffffffffff16815260200160028201805461071690611407565b80601f016020809104026020016040519081016040528092919081815260200182805461074290611407565b801561078f5780601f106107645761010080835404028352916020019161078f565b820191906000526020600020905b81548152906001019060200180831161077257829003601f168201915b5050505050815260200160038201805480602002602001604051908101604052809291908181526020016000905b828210156108695783829060005260206000200180546107dc90611407565b80601f016020809104026020016040519081016040528092919081815260200182805461080890611407565b80156108555780601f1061082a57610100808354040283529160200191610855565b820191906000526020600020905b81548152906001019060200180831161083857829003601f168201915b5050505050815260200190600101906107bd565b50505050815260200160048201805461088190611407565b80601f01602080910402602001604051908101604052809291908181526020018280546108ad90611407565b80156108fa5780601f106108cf576101008083540402835291602001916108fa565b820191906000526020600020905b8154815290600101906020018083116108dd57829003601f168201915b50505050508152505091505b80806109119061146a565b91505061063f565b50919050565b6003602052816000526040600020818154811061093b57600080fd5b90600052602060002090600302016000915091505080600001549080600101805461096590611407565b80601f016020809104026020016040519081016040528092919081815260200182805461099190611407565b80156109de5780601f106109b3576101008083540402835291602001916109de565b820191906000526020600020905b8154815290600101906020018083116109c157829003601f168201915b5050505050908060020154905083565b60006001600081546109ff9061146a565b919050819055905090565b828054610a1690611407565b90600052602060002090601f016020900481019282610a385760008555610a7f565b82601f10610a5157805160ff1916838001178555610a7f565b82800160010185558215610a7f579182015b82811115610a7e578251825591602001919060010190610a63565b5b509050610a8c9190610b35565b5090565b828054828255906000526020600020908101928215610adf579160200282015b82811115610ade578251829080519060200190610ace929190610a0a565b5091602001919060010190610ab0565b5b509050610aec9190610b52565b5090565b6040518060a0016040528060008152602001600073ffffffffffffffffffffffffffffffffffffffff1681526020016060815260200160608152602001606081525090565b5b80821115610b4e576000816000905550600101610b36565b5090565b5b80821115610b725760008181610b699190610b76565b50600101610b53565b5090565b508054610b8290611407565b6000825580601f10610b945750610bb3565b601f016020900490600052602060002090810190610bb29190610b35565b5b50565b6000610bc9610bc4846112c6565b6112a1565b90508083825260208201905082856020860282011115610bec57610beb6115ad565b5b60005b85811015610c3a57813567ffffffffffffffff811115610c1257610c1161159e565b5b808601610c1f8982610cde565b85526020850194506020840193505050600181019050610bef565b5050509392505050565b6000610c57610c52846112f2565b6112a1565b905082815260208101848484011115610c7357610c726115b2565b5b610c7e8482856113c5565b509392505050565b600081359050610c958161164a565b92915050565b600082601f830112610cb057610caf61159e565b5b8135610cc0848260208601610bb6565b91505092915050565b600081359050610cd881611661565b92915050565b600082601f830112610cf357610cf261159e565b5b8135610d03848260208601610c44565b91505092915050565b600060a08284031215610d2257610d216115a3565b5b610d2c60a06112a1565b90506000610d3c84828501610e6c565b6000830152506020610d5084828501610c86565b602083015250604082013567ffffffffffffffff811115610d7457610d736115a8565b5b610d8084828501610cde565b604083015250606082013567ffffffffffffffff811115610da457610da36115a8565b5b610db084828501610c9b565b606083015250608082013567ffffffffffffffff811115610dd457610dd36115a8565b5b610de084828501610cde565b60808301525092915050565b600060608284031215610e0257610e016115a3565b5b610e0c60606112a1565b90506000610e1c84828501610e6c565b600083015250602082013567ffffffffffffffff811115610e4057610e3f6115a8565b5b610e4c84828501610cde565b6020830152506040610e6084828501610e6c565b60408301525092915050565b600081359050610e7b81611671565b92915050565b60008060408385031215610e9857610e976115bc565b5b6000610ea685828601610c86565b9250506020610eb785828601610e6c565b9150509250929050565b600060208284031215610ed757610ed66115bc565b5b6000610ee584828501610cc9565b91505092915050565b600060208284031215610f0457610f036115bc565b5b600082013567ffffffffffffffff811115610f2257610f216115b7565b5b610f2e84828501610d0c565b91505092915050565b600060208284031215610f4d57610f4c6115bc565b5b600082013567ffffffffffffffff811115610f6b57610f6a6115b7565b5b610f7784828501610dec565b91505092915050565b600060208284031215610f9657610f956115bc565b5b6000610fa484828501610e6c565b91505092915050565b6000610fb98383611054565b905092915050565b610fca81611389565b82525050565b610fd981611389565b82525050565b6000610fea82611333565b610ff48185611356565b93508360208202850161100685611323565b8060005b8581101561104257848403895281516110238582610fad565b945061102e83611349565b925060208a0199505060018101905061100a565b50829750879550505050505092915050565b600061105f8261133e565b6110698185611367565b93506110798185602086016113d4565b611082816115c1565b840191505092915050565b60006110988261133e565b6110a28185611378565b93506110b28185602086016113d4565b6110bb816115c1565b840191505092915050565b60006110d3600f83611378565b91506110de826115d2565b602082019050919050565b60006110f6602983611378565b9150611101826115fb565b604082019050919050565b600060a0830160008301516111246000860182611190565b5060208301516111376020860182610fc1565b506040830151848203604086015261114f8282611054565b915050606083015184820360608601526111698282610fdf565b915050608083015184820360808601526111838282611054565b9150508091505092915050565b611199816113bb565b82525050565b6111a8816113bb565b82525050565b600060208201905081810360008301526111c7816110c6565b9050919050565b600060208201905081810360008301526111e7816110e9565b9050919050565b60006020820190508181036000830152611208818461110c565b905092915050565b6000608082019050611225600083018761119f565b6112326020830186610fd0565b8181036040830152611244818561108d565b90508181036060830152611258818461108d565b905095945050505050565b6000606082019050611278600083018661119f565b818103602083015261128a818561108d565b9050611299604083018461119f565b949350505050565b60006112ab6112bc565b90506112b78282611439565b919050565b6000604051905090565b600067ffffffffffffffff8211156112e1576112e061156f565b5b602082029050602081019050919050565b600067ffffffffffffffff82111561130d5761130c61156f565b5b611316826115c1565b9050602081019050919050565b6000819050602082019050919050565b600081519050919050565b600081519050919050565b6000602082019050919050565b600082825260208201905092915050565b600082825260208201905092915050565b600082825260208201905092915050565b60006113948261139b565b9050919050565b600073ffffffffffffffffffffffffffffffffffffffff82169050919050565b6000819050919050565b82818337600083830152505050565b60005b838110156113f25780820151818401526020810190506113d7565b83811115611401576000848401525b50505050565b6000600282049050600182168061141f57607f821691505b6020821081141561143357611432611511565b5b50919050565b611442826115c1565b810181811067ffffffffffffffff821117156114615761146061156f565b5b80604052505050565b6000611475826113bb565b91507fffffffffffffffffffffffffffffffffffffffffffffffffffffffffffffffff8214156114a8576114a76114b3565b5b600182019050919050565b7f4e487b7100000000000000000000000000000000000000000000000000000000600052601160045260246000fd5b7f4e487b7100000000000000000000000000000000000000000000000000000000600052602160045260246000fd5b7f4e487b7100000000000000000000000000000000000000000000000000000000600052602260045260246000fd5b7f4e487b7100000000000000000000000000000000000000000000000000000000600052603260045260246000fd5b7f4e487b7100000000000000000000000000000000000000000000000000000000600052604160045260246000fd5b600080fd5b600080fd5b600080fd5b600080fd5b600080fd5b600080fd5b600080fd5b6000601f19601f8301169050919050565b7f45737461646f20696e76616c69646f0000000000000000000000000000000000600082015250565b7f4e6f20736520707565646520726573706f6e64657220756e612070726567756e60008201527f74612070726f7069610000000000000000000000000000000000000000000000602082015250565b61165381611389565b811461165e57600080fd5b50565b6004811061166e57600080fd5b50565b61167a816113bb565b811461168557600080fd5b5056fea26469706673582212201117b741b25e5c33ee2cc1550fc068e5fdab5c1cbe3dc52f22ae442d340c2ead64736f6c63430008060033",
  "immutableReferences": {},
  "source": "// SPDX-License-Identifier: GPL-3.0\r\n\r\npragma solidity >=0.7.0 <0.9.0;\r\n\r\ncontract Pregunta3 {\r\n    Estado estado = Estado.LECTURA;\r\n    address duenio = 0x44026F6C64C2c98Ae7D4FbC15B20ae730B52AC8C;\r\n    uint256 idIncremental = 0;\r\n    Pregunta[] public preguntas;\r\n\r\n    mapping(address => Respuesta[]) public usuario;\r\n\r\n    enum Estado {\r\n        ACTIVO,\r\n        LECTURA,\r\n        RESPONDER,\r\n        BOOTSTRAP\r\n    }\r\n\r\n    struct Pregunta {\r\n        uint256 idPregunta;\r\n        address autor;\r\n        string texto;\r\n        string[] opciones;\r\n        string opcionCorrecta;\r\n    }\r\n\r\n    struct Respuesta {\r\n        uint256 idPregunta;\r\n        string opcion;\r\n        uint256 puntaje;\r\n    }\r\n    \r\n\r\n    /* \r\n    ACTIVO toda la funcionalidad habilitada.\r\n    LECTURA slo se pueden consultar preguntas existentes.\r\n    RESPONDER slo se permite consultar y responder preguntas, pero no crear nuevas.\r\n    BOOTSTRAP slo se permite crear nuevas preguntas. \r\n    */\r\n\r\n    /* \r\n    modifier verificarEstado(Estado memory _estado) {\r\n        require(estado == _estado);\r\n        _;\r\n    } \r\n    */\r\n\r\n    function verificarEstado(Estado _estado) public view {\r\n        require(estado != _estado, \"Estado invalido\");\r\n    }\r\n\r\n   /*  \r\n    modifier alResponder() {\r\n        require(estado != Estado.BOOTSTRAP && estado != Estado.LECTURA);\r\n        _;\r\n    }\r\n\r\n    modifier consultarPreguntas() {\r\n        require(estado != Estado.BOOTSTRAP);\r\n        _;\r\n    }\r\n\r\n    modifier consultarRespuestas() {\r\n        require(estado != Estado.BOOTSTRAP && estado != Estado.RESPONDER);\r\n        _;\r\n    }\r\n\r\n    modifier generarPregunta() {\r\n        require(estado != Estado.LECTURA && estado != Estado.RESPONDER);\r\n        _;\r\n    } */\r\n\r\n    //function cambiarEstado -> address, estadoNuevo\r\n    //require cambiarEstado -> Solo el creador puede cambiar el estado del smart contract\r\n    function cambiarEstado(Estado _estado) public { \r\n        require(msg.sender == duenio);\r\n        estado = _estado;\r\n    }\r\n\r\n    function getPreguntaById(uint256 idPregunta) public view returns (Pregunta memory pregunta) {\r\n        verificarEstado(Estado.BOOTSTRAP);\r\n        for (uint256 i = 0; i < preguntas.length; i++) {\r\n            if (preguntas[i].idPregunta == idPregunta) {\r\n                pregunta = preguntas[i];\r\n                //return pregunta;\r\n            }\r\n        }\r\n    }\r\n\r\n    //function responder -> address (del que responde), respuesta: idPregunta, opcion, puntaje\r\n    function responder(Respuesta memory respuesta) public {\r\n        verificarEstado(Estado.BOOTSTRAP);\r\n        verificarEstado(Estado.LECTURA);\r\n        Pregunta memory pregunta = getPreguntaById(respuesta.idPregunta);\r\n        require(\r\n            msg.sender != pregunta.autor,\r\n            \"No se puede responder una pregunta propia\"\r\n        );\r\n        usuario[msg.sender].push(respuesta);\r\n    }\r\n\r\n    //function crearPregunta -> pregunta: address (autor), texto, opciones (array?), opcionCorrecta\r\n    function crearPregunta(Pregunta memory pregunta) public {\r\n        verificarEstado(Estado.LECTURA);\r\n        verificarEstado(Estado.RESPONDER);\r\n        pregunta.idPregunta = getId();\r\n        preguntas.push(pregunta);\r\n    }\r\n\r\n    function getId() private returns (uint256) {\r\n        return ++idIncremental;\r\n    }\r\n\r\n    function getRespuestasByAddress(address idUsuario) private view returns (Respuesta[] memory respuestas){\r\n        respuestas = usuario[idUsuario];\r\n    }\r\n\r\n    //function promedioPuntaje -> address\r\n    // Un usuario debe poder obtener el promedio aproximado de los puntajes de todas las respuestas que l hizo.\r\n    // Esto debe al menos contar con precisin entera (no es necesario calcular con decimales).\r\n    /* function promedio(Usuario memory usuario) public pure returns (uint256) {\r\n        Respuesta[] memory respuestasUsuario = usuario.respuestas;\r\n        uint256 puntos = 0;\r\n\r\n        for (uint256 i = 0; i < respuestasUsuario.length; i++) {\r\n            Respuesta memory respuesta = respuestasUsuario[i];\r\n            puntos += respuesta.puntaje;\r\n        }\r\n\r\n        return puntos / respuestasUsuario.length;\r\n    } */\r\n\r\n\r\n    /* \r\n    function crearPregunta(address _autor, string _texto, string[] memory _opciones, string _opcionCorrecta) public {\r\n        preguntas.push(Pregunta({\r\n            autor: _autor,\r\n            texto: _texto,\r\n            opciones: _opciones,\r\n            opcionCorrecta: _opcionCorrecta\r\n        }));\r\n    } \r\n    */\r\n    // function getPreguntas() public view returns (Pregunta[] memory listaPreguntas) {\r\n    //     listaPreguntas = preguntas;\r\n    // }\r\n}\r\n\r\n//semilla:ritual tip pudding smoke access tide peasant iron twelve dignity tornado run\r\n//preguntasInstance.crearPregunta({\"idPregunta\": 1, \"autor\": \"0x44026F6C64C2c98Ae7D4FbC15B20ae730B52AC8C\", \"texto\": \"prueba\", \"opciones\": [\"prueba1\",\"prueba2\"], \"opcionCorrecta\": \"prueba2\"})\r\n",
  "sourcePath": "C:/Users/mcarunchio/PHM/tp-2021-front-grupo-6-1/pregunta3/truffle/contracts/Pregunta3.sol",
  "compiler": {
    "name": "solc",
    "version": "0.8.6+commit.11564f7e.Emscripten.clang"
  },
  "schemaVersion": "3.4.1",
  "updatedAt": "2021-06-23T04:25:16.511Z",
  "devdoc": {
    "kind": "dev",
    "methods": {},
    "version": 1
  },
  "userdoc": {
    "kind": "user",
    "methods": {},
    "version": 1
  }
}