{
  "contractName": "Pregunta3",
  "abi": [
    {
      "inputs": [
        {
          "internalType": "uint256",
          "name": "",
          "type": "uint256"
        }
      ],
      "name": "preguntas",
      "outputs": [
        {
          "internalType": "uint256",
          "name": "idPregunta",
          "type": "uint256"
        },
        {
          "internalType": "address",
          "name": "autor",
          "type": "address"
        },
        {
          "internalType": "string",
          "name": "texto",
          "type": "string"
        },
        {
          "internalType": "string",
          "name": "opcionCorrecta",
          "type": "string"
        }
      ],
      "stateMutability": "view",
      "type": "function"
    },
    {
      "inputs": [
        {
          "internalType": "uint256",
          "name": "",
          "type": "uint256"
        }
      ],
      "name": "respuestas",
      "outputs": [
        {
          "internalType": "address",
          "name": "usuario",
          "type": "address"
        },
        {
          "internalType": "uint256",
          "name": "idPregunta",
          "type": "uint256"
        },
        {
          "internalType": "string",
          "name": "opcion",
          "type": "string"
        },
        {
          "internalType": "uint256",
          "name": "puntaje",
          "type": "uint256"
        }
      ],
      "stateMutability": "view",
      "type": "function"
    },
    {
      "inputs": [
        {
          "internalType": "uint256",
          "name": "idPregunta",
          "type": "uint256"
        }
      ],
      "name": "getPreguntaById",
      "outputs": [
        {
          "components": [
            {
              "internalType": "uint256",
              "name": "idPregunta",
              "type": "uint256"
            },
            {
              "internalType": "address",
              "name": "autor",
              "type": "address"
            },
            {
              "internalType": "string",
              "name": "texto",
              "type": "string"
            },
            {
              "internalType": "string[]",
              "name": "opciones",
              "type": "string[]"
            },
            {
              "internalType": "string",
              "name": "opcionCorrecta",
              "type": "string"
            }
          ],
          "internalType": "struct Pregunta3.Pregunta",
          "name": "pregunta",
          "type": "tuple"
        }
      ],
      "stateMutability": "view",
      "type": "function"
    },
    {
      "inputs": [],
      "name": "getPreguntas",
      "outputs": [
        {
          "components": [
            {
              "internalType": "uint256",
              "name": "idPregunta",
              "type": "uint256"
            },
            {
              "internalType": "address",
              "name": "autor",
              "type": "address"
            },
            {
              "internalType": "string",
              "name": "texto",
              "type": "string"
            },
            {
              "internalType": "string[]",
              "name": "opciones",
              "type": "string[]"
            },
            {
              "internalType": "string",
              "name": "opcionCorrecta",
              "type": "string"
            }
          ],
          "internalType": "struct Pregunta3.Pregunta[]",
          "name": "listaPreguntas",
          "type": "tuple[]"
        }
      ],
      "stateMutability": "view",
      "type": "function"
    },
    {
      "inputs": [
        {
          "components": [
            {
              "internalType": "address",
              "name": "usuario",
              "type": "address"
            },
            {
              "internalType": "uint256",
              "name": "idPregunta",
              "type": "uint256"
            },
            {
              "internalType": "string",
              "name": "opcion",
              "type": "string"
            },
            {
              "internalType": "uint256",
              "name": "puntaje",
              "type": "uint256"
            }
          ],
          "internalType": "struct Pregunta3.Respuesta",
          "name": "respuesta",
          "type": "tuple"
        }
      ],
      "name": "responder",
      "outputs": [],
      "stateMutability": "nonpayable",
      "type": "function"
    },
    {
      "inputs": [
        {
          "components": [
            {
              "internalType": "uint256",
              "name": "idPregunta",
              "type": "uint256"
            },
            {
              "internalType": "address",
              "name": "autor",
              "type": "address"
            },
            {
              "internalType": "string",
              "name": "texto",
              "type": "string"
            },
            {
              "internalType": "string[]",
              "name": "opciones",
              "type": "string[]"
            },
            {
              "internalType": "string",
              "name": "opcionCorrecta",
              "type": "string"
            }
          ],
          "internalType": "struct Pregunta3.Pregunta",
          "name": "pregunta",
          "type": "tuple"
        }
      ],
      "name": "crearPregunta",
      "outputs": [],
      "stateMutability": "nonpayable",
      "type": "function"
    }
  ],
  "bytecode": "0x608060405234801561001057600080fd5b5061186e806100206000396000f3fe608060405234801561001057600080fd5b50600436106100625760003560e01c80630211a0681461006757806348ec82fb146100855780637b8ea605146100a15780638172d809146100d4578063ca272764146100f0578063d3628b3714610123575b600080fd5b61006f610153565b60405161007c91906113c9565b60405180910390f35b61009f600480360381019061009a9190610fd3565b61040f565b005b6100bb60048036038101906100b69190611065565b6104e8565b6040516100cb949392919061137d565b60405180910390f35b6100ee60048036038101906100e9919061101c565b6105d0565b005b61010a60048036038101906101059190611065565b610702565b60405161011a949392919061142d565b60405180910390f35b61013d60048036038101906101389190611065565b610872565b60405161014a919061140b565b60405180910390f35b60606000805480602002602001604051908101604052809291908181526020016000905b8282101561040657838290600052602060002090600502016040518060a0016040529081600082015481526020016001820160009054906101000a900473ffffffffffffffffffffffffffffffffffffffff1673ffffffffffffffffffffffffffffffffffffffff1673ffffffffffffffffffffffffffffffffffffffff16815260200160028201805461020a9061161f565b80601f01602080910402602001604051908101604052809291908181526020018280546102369061161f565b80156102835780601f1061025857610100808354040283529160200191610283565b820191906000526020600020905b81548152906001019060200180831161026657829003601f168201915b5050505050815260200160038201805480602002602001604051908101604052809291908181526020016000905b8282101561035d5783829060005260206000200180546102d09061161f565b80601f01602080910402602001604051908101604052809291908181526020018280546102fc9061161f565b80156103495780601f1061031e57610100808354040283529160200191610349565b820191906000526020600020905b81548152906001019060200180831161032c57829003601f168201915b5050505050815260200190600101906102b1565b5050505081526020016004820180546103759061161f565b80601f01602080910402602001604051908101604052809291908181526020018280546103a19061161f565b80156103ee5780601f106103c3576101008083540402835291602001916103ee565b820191906000526020600020905b8154815290600101906020018083116103d157829003601f168201915b50505050508152505081526020019060010190610177565b50505050905090565b60008190806001815401808255809150506001900390600052602060002090600502016000909190919091506000820151816000015560208201518160010160006101000a81548173ffffffffffffffffffffffffffffffffffffffff021916908373ffffffffffffffffffffffffffffffffffffffff16021790555060408201518160020190805190602001906104a8929190610b5d565b5060608201518160030190805190602001906104c5929190610be3565b5060808201518160040190805190602001906104e2929190610b5d565b50505050565b600181815481106104f857600080fd5b90600052602060002090600402016000915090508060000160009054906101000a900473ffffffffffffffffffffffffffffffffffffffff16908060010154908060020180546105479061161f565b80601f01602080910402602001604051908101604052809291908181526020018280546105739061161f565b80156105c05780601f10610595576101008083540402835291602001916105c0565b820191906000526020600020905b8154815290600101906020018083116105a357829003601f168201915b5050505050908060030154905084565b60006105df8260200151610872565b9050806020015173ffffffffffffffffffffffffffffffffffffffff16826000015173ffffffffffffffffffffffffffffffffffffffff161415610658576040517f08c379a000000000000000000000000000000000000000000000000000000000815260040161064f906113eb565b60405180910390fd5b600182908060018154018082558091505060019003906000526020600020906004020160009091909190915060008201518160000160006101000a81548173ffffffffffffffffffffffffffffffffffffffff021916908373ffffffffffffffffffffffffffffffffffffffff1602179055506020820151816001015560408201518160020190805190602001906106f1929190610b5d565b506060820151816003015550505050565b6000818154811061071257600080fd5b90600052602060002090600502016000915090508060000154908060010160009054906101000a900473ffffffffffffffffffffffffffffffffffffffff16908060020180546107619061161f565b80601f016020809104026020016040519081016040528092919081815260200182805461078d9061161f565b80156107da5780601f106107af576101008083540402835291602001916107da565b820191906000526020600020905b8154815290600101906020018083116107bd57829003601f168201915b5050505050908060040180546107ef9061161f565b80601f016020809104026020016040519081016040528092919081815260200182805461081b9061161f565b80156108685780601f1061083d57610100808354040283529160200191610868565b820191906000526020600020905b81548152906001019060200180831161084b57829003601f168201915b5050505050905084565b61087a610c43565b60005b600080549050811015610b5757826000828154811061089f5761089e611729565b5b9060005260206000209060050201600001541415610b4457600081815481106108cb576108ca611729565b5b90600052602060002090600502016040518060a0016040529081600082015481526020016001820160009054906101000a900473ffffffffffffffffffffffffffffffffffffffff1673ffffffffffffffffffffffffffffffffffffffff1673ffffffffffffffffffffffffffffffffffffffff1681526020016002820180546109549061161f565b80601f01602080910402602001604051908101604052809291908181526020018280546109809061161f565b80156109cd5780601f106109a2576101008083540402835291602001916109cd565b820191906000526020600020905b8154815290600101906020018083116109b057829003601f168201915b5050505050815260200160038201805480602002602001604051908101604052809291908181526020016000905b82821015610aa7578382906000526020600020018054610a1a9061161f565b80601f0160208091040260200160405190810160405280929190818152602001828054610a469061161f565b8015610a935780601f10610a6857610100808354040283529160200191610a93565b820191906000526020600020905b815481529060010190602001808311610a7657829003601f168201915b5050505050815260200190600101906109fb565b505050508152602001600482018054610abf9061161f565b80601f0160208091040260200160405190810160405280929190818152602001828054610aeb9061161f565b8015610b385780601f10610b0d57610100808354040283529160200191610b38565b820191906000526020600020905b815481529060010190602001808311610b1b57829003601f168201915b50505050508152505091505b8080610b4f90611682565b91505061087d565b50919050565b828054610b699061161f565b90600052602060002090601f016020900481019282610b8b5760008555610bd2565b82601f10610ba457805160ff1916838001178555610bd2565b82800160010185558215610bd2579182015b82811115610bd1578251825591602001919060010190610bb6565b5b509050610bdf9190610c88565b5090565b828054828255906000526020600020908101928215610c32579160200282015b82811115610c31578251829080519060200190610c21929190610b5d565b5091602001919060010190610c03565b5b509050610c3f9190610ca5565b5090565b6040518060a0016040528060008152602001600073ffffffffffffffffffffffffffffffffffffffff1681526020016060815260200160608152602001606081525090565b5b80821115610ca1576000816000905550600101610c89565b5090565b5b80821115610cc55760008181610cbc9190610cc9565b50600101610ca6565b5090565b508054610cd59061161f565b6000825580601f10610ce75750610d06565b601f016020900490600052602060002090810190610d059190610c88565b5b50565b6000610d1c610d17846114a5565b611480565b90508083825260208201905082856020860282011115610d3f57610d3e611796565b5b60005b85811015610d8d57813567ffffffffffffffff811115610d6557610d64611787565b5b808601610d728982610e1c565b85526020850194506020840193505050600181019050610d42565b5050509392505050565b6000610daa610da5846114d1565b611480565b905082815260208101848484011115610dc657610dc561179b565b5b610dd18482856115dd565b509392505050565b600081359050610de88161180a565b92915050565b600082601f830112610e0357610e02611787565b5b8135610e13848260208601610d09565b91505092915050565b600082601f830112610e3157610e30611787565b5b8135610e41848260208601610d97565b91505092915050565b600060a08284031215610e6057610e5f61178c565b5b610e6a60a0611480565b90506000610e7a84828501610fbe565b6000830152506020610e8e84828501610dd9565b602083015250604082013567ffffffffffffffff811115610eb257610eb1611791565b5b610ebe84828501610e1c565b604083015250606082013567ffffffffffffffff811115610ee257610ee1611791565b5b610eee84828501610dee565b606083015250608082013567ffffffffffffffff811115610f1257610f11611791565b5b610f1e84828501610e1c565b60808301525092915050565b600060808284031215610f4057610f3f61178c565b5b610f4a6080611480565b90506000610f5a84828501610dd9565b6000830152506020610f6e84828501610fbe565b602083015250604082013567ffffffffffffffff811115610f9257610f91611791565b5b610f9e84828501610e1c565b6040830152506060610fb284828501610fbe565b60608301525092915050565b600081359050610fcd81611821565b92915050565b600060208284031215610fe957610fe86117a5565b5b600082013567ffffffffffffffff811115611007576110066117a0565b5b61101384828501610e4a565b91505092915050565b600060208284031215611032576110316117a5565b5b600082013567ffffffffffffffff8111156110505761104f6117a0565b5b61105c84828501610f2a565b91505092915050565b60006020828403121561107b5761107a6117a5565b5b600061108984828501610fbe565b91505092915050565b600061109e83836111c2565b905092915050565b60006110b28383611257565b905092915050565b6110c3816115a1565b82525050565b6110d2816115a1565b82525050565b60006110e382611522565b6110ed818561155d565b9350836020820285016110ff85611502565b8060005b8581101561113b578484038952815161111c8582611092565b945061112783611543565b925060208a01995050600181019050611103565b50829750879550505050505092915050565b60006111588261152d565b611162818561156e565b93508360208202850161117485611512565b8060005b858110156111b0578484038952815161119185826110a6565b945061119c83611550565b925060208a01995050600181019050611178565b50829750879550505050505092915050565b60006111cd82611538565b6111d7818561157f565b93506111e78185602086016115ec565b6111f0816117aa565b840191505092915050565b600061120682611538565b6112108185611590565b93506112208185602086016115ec565b611229816117aa565b840191505092915050565b6000611241602983611590565b915061124c826117bb565b604082019050919050565b600060a08301600083015161126f600086018261135f565b50602083015161128260208601826110ba565b506040830151848203604086015261129a82826111c2565b915050606083015184820360608601526112b482826110d8565b915050608083015184820360808601526112ce82826111c2565b9150508091505092915050565b600060a0830160008301516112f3600086018261135f565b50602083015161130660208601826110ba565b506040830151848203604086015261131e82826111c2565b9150506060830151848203606086015261133882826110d8565b9150506080830151848203608086015261135282826111c2565b9150508091505092915050565b611368816115d3565b82525050565b611377816115d3565b82525050565b600060808201905061139260008301876110c9565b61139f602083018661136e565b81810360408301526113b181856111fb565b90506113c0606083018461136e565b95945050505050565b600060208201905081810360008301526113e3818461114d565b905092915050565b6000602082019050818103600083015261140481611234565b9050919050565b6000602082019050818103600083015261142581846112db565b905092915050565b6000608082019050611442600083018761136e565b61144f60208301866110c9565b818103604083015261146181856111fb565b9050818103606083015261147581846111fb565b905095945050505050565b600061148a61149b565b90506114968282611651565b919050565b6000604051905090565b600067ffffffffffffffff8211156114c0576114bf611758565b5b602082029050602081019050919050565b600067ffffffffffffffff8211156114ec576114eb611758565b5b6114f5826117aa565b9050602081019050919050565b6000819050602082019050919050565b6000819050602082019050919050565b600081519050919050565b600081519050919050565b600081519050919050565b6000602082019050919050565b6000602082019050919050565b600082825260208201905092915050565b600082825260208201905092915050565b600082825260208201905092915050565b600082825260208201905092915050565b60006115ac826115b3565b9050919050565b600073ffffffffffffffffffffffffffffffffffffffff82169050919050565b6000819050919050565b82818337600083830152505050565b60005b8381101561160a5780820151818401526020810190506115ef565b83811115611619576000848401525b50505050565b6000600282049050600182168061163757607f821691505b6020821081141561164b5761164a6116fa565b5b50919050565b61165a826117aa565b810181811067ffffffffffffffff8211171561167957611678611758565b5b80604052505050565b600061168d826115d3565b91507fffffffffffffffffffffffffffffffffffffffffffffffffffffffffffffffff8214156116c0576116bf6116cb565b5b600182019050919050565b7f4e487b7100000000000000000000000000000000000000000000000000000000600052601160045260246000fd5b7f4e487b7100000000000000000000000000000000000000000000000000000000600052602260045260246000fd5b7f4e487b7100000000000000000000000000000000000000000000000000000000600052603260045260246000fd5b7f4e487b7100000000000000000000000000000000000000000000000000000000600052604160045260246000fd5b600080fd5b600080fd5b600080fd5b600080fd5b600080fd5b600080fd5b600080fd5b6000601f19601f8301169050919050565b7f4e6f20736520707565646520726573706f6e64657220756e612070726567756e60008201527f74612070726f7069610000000000000000000000000000000000000000000000602082015250565b611813816115a1565b811461181e57600080fd5b50565b61182a816115d3565b811461183557600080fd5b5056fea264697066735822122038b784f165caf36d0daa83be79dc08cc4ad1dedff634be3f774f35af3105e1a064736f6c63430008050033",
  "immutableReferences": {},
  "source": "pragma solidity >=0.7.0 <0.9.0;\r\n//pragma experimental ABIEncoderV2;\r\n\r\ncontract Pregunta3 {\r\n    // como se calcula el puntaje al responder?\r\n\r\n    //function promedioPuntaje -> address\r\n    //function cambiarEstado -> address, estadoNuevo\r\n    //require cambiarEstado -> Solo el creador puede cambiar el estado del smart contract\r\n\r\n    struct Pregunta {\r\n        uint256 idPregunta; // AUTOINCREMENTAL -> variable global? modifier?\r\n        address autor;\r\n        string texto;\r\n        string[] opciones;\r\n        string opcionCorrecta;\r\n    }\r\n\r\n    struct Respuesta {\r\n        address usuario;\r\n        uint256 idPregunta;\r\n        string opcion;\r\n        uint256 puntaje;\r\n    }\r\n\r\n    Pregunta[] public preguntas;\r\n    Respuesta[] public respuestas;\r\n\r\n    function getPreguntaById(uint256 idPregunta)\r\n        public\r\n        view\r\n        returns (Pregunta memory pregunta)\r\n    {\r\n        for (uint256 i = 0; i < preguntas.length; i++) {\r\n            if (preguntas[i].idPregunta == idPregunta) {\r\n                pregunta = preguntas[i];\r\n                //return pregunta;\r\n            }\r\n        }\r\n    }\r\n\r\n    function getPreguntas()\r\n        public\r\n        view\r\n        returns (Pregunta[] memory listaPreguntas)\r\n    {\r\n        listaPreguntas = preguntas;\r\n    }\r\n\r\n    //function responder -> address (del que responde), respuesta: idPregunta, opcion, puntaje\r\n    function responder(Respuesta memory respuesta) public {\r\n        Pregunta memory pregunta = getPreguntaById(respuesta.idPregunta);\r\n        require(\r\n            respuesta.usuario != pregunta.autor,\r\n            \"No se puede responder una pregunta propia\"\r\n        );\r\n        respuestas.push(respuesta);\r\n    }\r\n\r\n    //function crearPregunta -> pregunta: address (autor), texto, opciones (array?), opcionCorrecta\r\n    function crearPregunta(Pregunta memory pregunta) public {\r\n        preguntas.push(pregunta);\r\n    }\r\n    /* \r\n    function crearPregunta(address _autor, string _texto, string[] memory _opciones, string _opcionCorrecta) public {\r\n        preguntas.push(Pregunta({\r\n            autor: _autor,\r\n            texto: _texto,\r\n            opciones: _opciones,\r\n            opcionCorrecta: _opcionCorrecta\r\n        }));\r\n    } \r\n    */\r\n}\r\n",
  "sourcePath": "C:/Users/mcarunchio/PHM/tp-2021-front-grupo-6-1/pregunta3/truffle/contracts/Pregunta3.sol",
  "compiler": {
    "name": "solc",
    "version": "0.8.5+commit.a4f2e591.Emscripten.clang"
  },
  "schemaVersion": "3.4.1",
  "updatedAt": "2021-06-17T23:14:22.954Z",
  "devdoc": {
    "kind": "dev",
    "methods": {},
    "version": 1
  },
  "userdoc": {
    "kind": "user",
    "methods": {},
    "version": 1
  }
}